:020000040800F2
:100000006804002005010008210F0008BD0C00084D
:100010001F0F0008710100087B0F0008000000009E
:10002000000000000000000000000000250F000894
:100030007301000800000000230F0008270F0008CC
:100040001F0100081F0100081F0100081F01000810
:100050001F0100081F0100081F0100081F01000800
:100060001F0100081F0100081F0100081F010008F0
:100070001F0100081F0100081F0100081F010008E0
:100080001F0100081F0100081F0100081F010008D0
:100090001F0100081F0100081F0100081F010008C0
:1000A0001F0100081F0100081F0100081F010008B0
:1000B0001F0100081F0100081F0100081F010008A0
:1000C0001F0100081F0100081F0100081F01000890
:1000D0001F0100081F0100081F0100081F01000880
:1000E0001F0100081F0100081F010008DFF810D0E1
:1000F00000F02CF800480047D1100008AFF3008052
:10010000680400200648804706480047FEE7FEE7EF
:10011000FEE7FEE7FEE7FEE7FEE7FEE7FEE7FEE7B7
:10012000790F0008ED000008D2B201E000F8012BC1
:10013000491EFBD270470022F6E710B513460A4667
:1001400004461946FFF7F0FF204610BD064C074D48
:1001500006E0E06840F0010394E807009847103497
:10016000AC42F6D3FFF7C6FFA4110008C411000883
:10017000FEE7704770B5044600F0FEF80546601CC7
:1001800002D004480078044400F0F6F8401BA04276
:10019000FAD370BD000000202DE9F84FDFF8B891C8
:1001A000002409F1040A0AF1040B23460F270BF17E
:1001B000040EC9E00125A5402A40AA427DD1674E20
:1001C000D1F804C0ACEB0608B44532D014DCBCF165
:1001D000030F3AD009DCBCF1000F2AD0BCF1010FAB
:1001E0001CD0BCF1020F31D11DE0BCF1110F17D0B2
:1001F000BCF1120F2AD119E0B8F5881F19D006DC1E
:10020000B8F5803F15D0B8F5801F1FD111E0B8F5C3
:10021000001F0ED0B8F5041F18D10AE0CB6815E016
:10022000CB681B1D12E0CB6808330FE0CB680C33A2
:100230000CE08B682BB1012B4FF0080303D0456114
:1002400004E0042302E0056100E00023FF2A01D856
:10025000064601E000F104064FEA840501D9A5F144
:100260002005D6F8008007FA05FC28EA0C0803FAF6
:1002700005F548EA0508C6F800804D68ED0062D52E
:10028000374DAE6946F00106AE61AD6924F0030654
:1002900005F001050095334D06EB050CDCF8085020
:1002A000A607360F07FA06F825EA0805DFF8B88032
:1002B000404503D14FF0000817E044E0DFF8AC8080
:1002C000404502D14FF001080FE0DFF8A48040451F
:1002D00002D14FF0020808E0DFF89880404502D1D3
:1002E0004FF0030801E04FF0040808FA06F848EA66
:1002F0000508CCF808804D68D9F80060ED034D463C
:1003000001D5164300E096432E604D68DAF8006090
:10031000AD03554601D5164300E096432E604D6867
:10032000DBF80060ED025D4601D5164300E0964320
:100330002E604D68DEF80060AD02754601D51643AB
:1003400000E096432E60641C0D682A46E5407FF469
:1003500031AFBDE8F88F000000040140000011102B
:10036000001002400000014000080140000C014064
:1003700000100140001401400148806870470000EF
:100380000000002070B5040025D094F83D00002541
:1003900020B984F83C50204600F04EF9242084F81F
:1003A0003D002068016821F00101016020680168BA
:1003B00041F4004101602068016821F400410160BE
:1003C00000F092FA4D4A6168914201D84C4900E030
:1003D0004C49884201D2012070BD4B492368B0FBD3
:1003E000F1F15E6826F03F060E435E60636893425B
:1003F00006D94FF4967359434FF47A73B1FBF3F176
:100400002368491C1E6A26F03F0631431962616861
:10041000914210D84900401EB0FBF1F2521CC2F3C9
:100420000B02042A01D2042022E0B0FBF1F0401CB0
:10043000C0F30B001CE0A268F2B301EBC10303EBB5
:100440000116431EB3FBF6F35B1C43F480431B050C
:1004500049D092B301EBC10202EB0111401EB0FB87
:10046000F1F0401CC0F30B0040F4804040F4004029
:100470002168CA694CF6FF739A431043C861D4E9F6
:10048000071001432068026822F0C0021143016096
:10049000D4E9030101432068826848F2FF339A439C
:1004A00011438160D4E9050108432168CA6822F03C
:1004B000FF021043C86001E00EE016E0206801680A
:1004C00041F0010101602564202084F83D0025638E
:1004D00084F83E50002070BD01EB4106431EB3FB83
:1004E000F6F35B1CB3E70120C2E701EB4101401EBC
:1004F000B0FBF1F0401CC0F30B00B7E7A086010091
:1005000080841E0000093D0040420F002DE9F84F95
:100510001F4690468A460446DDF82890FFF72CFFD8
:10052000054694F83D0020287FD119230122404937
:100530002046009500F04EFC002876D194F83C004F
:10054000012872D0012084F83C0020680168C907A6
:1005500003D1016841F0010101602068016821F4C4
:1005600000610160212084F83D00102084F83E00E5
:1005700000262664C4F824806785608D20852D4878
:10058000E0622B464A465146204600F0AFFB90B948
:10059000206841698069009036E02A464946204635
:1005A00000F097FC50B1206C042804D12068016849
:1005B00041F4007101600120BDE8F88F606A216894
:1005C00000780861606A401C6062618D491E618527
:1005D000218D491E89B2218522685369DB435B075F
:1005E0000BD451B100781061606A401C6062608D6C
:1005F000401E6085208D401E20852A4649462046A3
:1006000000F0C2FB0028CED1208D0028C5D154F8BF
:100610003D0B016841F400710160202004F81E09BF
:10062000E67766770020C7E7FFE70220C4E700000F
:10063000020010000000FFFF10B586B000210091FD
:1006400001910291039100681349884222D1134C11
:10065000A06940F00800A061A069694600F00800A8
:1006600004904FF4407000901220019003200390FA
:100670000B48FFF791FD0B48416841F0E06141F004
:1006800002014160E06940F40010E061E06900F4BB
:100690000010049006B010BD00540040001002404D
:1006A000000C0140000001400248816802781144BA
:1006B0008160704700000020074810B5016841F0D4
:1006C00010010160032000F067F8002000F006F838
:1006D00000F024F8002010BD0020024070B50D4D40
:1006E00004464FF47A712878B1FBF0F00A490968A2
:1006F000B1FBF0F000F0CEFA48B9102C07D200227E
:100700002146501E00F028F800206C6070BD0120CA
:1007100070BD0000000000200C0000200C4808B54F
:10072000816941F001018161816901F0010100915C
:10073000C16941F08051C161C06900F080500090F2
:100740000448416821F0E06141F00071416008BD5A
:100750000010024000000140F0B40E4B1B680C4634
:10076000C3F30223C3F10705042D00D90425191D85
:10077000072901D2002300E0DB1E012606FA05F15D
:10078000491E214099409E40761E16403143F0BCE0
:1007900000F0F4BB0CED00E0064900F00702086829
:1007A0004FF6FF03184040EA0220034A1043086056
:1007B000704700000CED00E00000FA052DE9F0475D
:1007C0000F46050061D0434E306800F00700B84284
:1007D00009D2306820F0070038433060306800F0FC
:1007E0000700B84251D128683B4C810712D5400719
:1007F00003D5606840F4E06060602878000703D5A6
:10080000606840F4605060606068A96820F0F000A3
:10081000084360602878C00728D06868012810D095
:100820002168022810D0890700292EDA616821F09A
:10083000030101436160FFF79FFD804641F2883963
:100840000DE021688903EFE78901EDE7FFF794FDEB
:10085000A0EB0801494502D90320BDE8F087606894
:10086000696800F00C00B0EB810FEFD1306800F048
:100870000700B8420BD9306820F0070038433060D9
:10088000306800F00700B84201D00120E5E7287881
:10089000400705D56068E96820F4E06008436060BF
:1008A0002878000706D56068296920F4605040EA7E
:1008B000C100606000F028F86168084AC1F30311C4
:1008C000515CC8400649086006480068FFF706FF0B
:1008D0000020C2E700200240001002408C110008F6
:1008E0000C00002004000020044805490068496805
:1008F000044AC1F30221515CC84070470C0000203B
:10090000001002409C11000812A185B00FC98DE8AB
:100910000F0014A0144A006804905168134801F0B5
:100920000C03042B10D0082B0ED1C1F38343C90351
:100930001DF803000AD5516804AAC1F34041515C77
:100940000A4A5043B0FBF1F005B0704708494843EC
:10095000FAE7000002030405060708090A0B0C0D5C
:100960000E0F1010010200000010024000127A0069
:1009700000093D002DE9F84F040070D02078C04DEB
:10098000C00749D06868C0F38100012807D06868B3
:10099000C0F38100022809D16868C00306D5286821
:1009A000800339D560680028E7D035E06068B0F58D
:1009B000803F0BD010B1B0F5A02F11D0286820F4E3
:1009C00080302860286820F4802002E0286840F405
:1009D00080302860606890B1FFF7CEFC06460AE0E0
:1009E000286840F480202860F0E700BFFFF7C4FCCF
:1009F000801B642873D828688003F7D50CE0FFF7C4
:100A0000BBFC064605E000BFFFF7B6FC801B642870
:100A1000F0D828688003F7D420789A4E80074FF0EA
:100A200001094FF0000839D5686810F00C0F07D0A5
:100A30006868C0F38100022809D16868C00306D441
:100A40002868800714D52069012808D110E02069A2
:100A5000B0B1C6F80090FFF78FFC074605E00AE149
:100A6000FFF78AFCC01B0228C4D828688007F7D586
:100A70002868616920F0F80040EAC10028600DE0B4
:100A8000C6F80080FFF778FC074604E0FFF774FC27
:100A9000C01B022823D828688007F7D420780007D5
:100AA0002CD57948A169D9B1C0F80090FFF764FC52
:100AB000074604E0FFF760FCC01B02280FD8686AF5
:100AC0008007F7D571484FF4FA510068B0FBF1F098
:100AD000009000BF0098411E0091FAD20EE080E025
:100AE000C0F80080FFF748FC074604E0FFF744FC2D
:100AF000C01B022875D8686A8007F7D420784007A1
:100B000060D5E8690027C00008D4E86940F080504B
:100B1000E861E869012700F0805000905C480168B6
:100B2000C90513D40168834641F480710160FFF761
:100B300023FC824606E000BFFFF71EFCA0EB0A0084
:100B400064284ED8DBF80000C005F5D5E068012820
:100B50000AD008B1052813D0286A20F001002862C5
:100B6000286A20F0040002E0286A40F001002862B0
:100B7000E06841F2883B98B1FFF7FEFB82460BE04C
:100B8000286A40F004002862EEE700BFFFF7F4FB9C
:100B9000A0EB0A0159455AD8286A8007F6D50CE01F
:100BA000FFF7EAFB824605E0FFF7E6FBA0EB0A0150
:100BB00059454CD8286A8007F6D41FB1E86920F05F
:100BC0008050E861E06988B36968C1F38101022956
:100BD00044D00228C6F8608004D0FFF7CDFB04465D
:100BE00038E034E0FFF7C8FB074604E0FFF7C4FB3A
:100BF000C01B02282BD828688001F7D4206AB0F5E2
:100C0000803F05D16868A16820F40030084368601F
:100C1000D4E908010843696821F474110843686045
:100C2000C6F86090FFF7A8FB044606E025E000BF89
:100C3000FFF7A2FB001B022809D828688001F7D51E
:100C40001BE000BFFFF798FB001B022802D903201E
:100C5000BDE8F88F28688001F4D40EE00128F7D0B1
:100C60006868226A00F48031914204D1616A00F41C
:100C70007010884201D00120EAE70020E8E7000078
:100C80000010024000004242800442420C0000205A
:100C90000070004010B5401EB0F1807F01D30120EC
:100CA00010BD4FF0E02460610F21601700F066F97D
:100CB0000020A06107202061002010BDFEE7016830
:100CC0004A69D24352050FD46FF480624A61002111
:100CD00040F8301F202242738173026942F00402FF
:100CE000026101730120704700207047F8B5044687
:100CF000C06A1E460D461746082807D0012805D0B1
:100D000010F5803F02D0206B122804D120680168C2
:100D100041F480710160134600224FF0011120461A
:100D2000009600F057F840B120680068C00502D571
:100D30004FF4007020640320F8BD2069B0F5804FA7
:100D40000ED00620216800EAD51040F0F0000861BE
:100D500033463A460B49204600F070F878B902E075
:100D600005F0FE0000E0E8B221680861054933465D
:100D70003A46891F204600F061F80028DCD00120A7
:100D8000F8BD00000800010070B516460D46044687
:100D90000DE02046FFF793FF08B1012070BD681CED
:100DA00005D0FFF7E9FA801BA84207D835B12068C3
:100DB0004069C0434007ECD4002070BD002044F8D7
:100DC000300F20216173A073216941F0200121615E
:100DD0002073E2E72DE9F0471E4690460D46044693
:100DE000C1F30747DDF8209008E0701C06D0FFF73C
:100DF000C3FAA0EB0900B0420FD876B12068012FEA
:100E000018D0806925EA00000004000C14D00021ED
:100E10004145EAD00020BDE8F087002044F8300FBB
:100E200020216173A073216941F0200121612073A9
:100E30000120F0E74069E5E70121E9E72DE9F04706
:100E40009A4691460E46044600254FF02008C1F30D
:100E5000074725E020684069C043400514D4206856
:100E6000016841F40071016021686FF4806048619D
:100E7000256384F83D8084F83E50206C40F00400E7
:100E8000206484F83C501FE0B9F1FF3F08D0FFF721
:100E900073FAA0EB0A0149450CD8B9F1000F09D04B
:100EA0002068012F13D0806926EA00000004000C9E
:100EB0000BD0CFE744F8305F84F80D80A57320692C
:100EC00040F02000206125730120BDE8F0874069D3
:100ED000EAE770B516460D4604460DE02046FFF7DA
:100EE000EEFE08B1012070BD681C05D0FFF744FA82
:100EF000801BA84207D835B120684069C04300066E
:100F0000ECD4002070BD002044F8300F2021617324
:100F1000A073216941F0200121612073E2E7FEE71F
:100F2000704770477047FFF7BFBB30B58FB02821BF
:100F30006846FFF700F914210AA8FFF7FCF8012121
:100F40000804CDE900100024029402250491CDE9A3
:100F500007504FF4E01009906846FFF70BFD0F2093
:100F6000CDE90A056802CDE90C4002210AA80E94D9
:100F7000FFF724FC0FB030BD7047FEE70907090EEC
:100F8000002804DB00F1E02080F80014704700F036
:100F90000F0000F1E02080F8141D704702E008C83F
:100FA000121F08C1002AFAD170477047002001E0E3
:100FB00001C1121F002AFBD17047020006D0012A8E
:100FC00006D0022A08D0032804D107E0803100E0CF
:100FD000C031C8B200F032B89431FAE7D431F8E742
:100FE00010B5332000F02AF8322000F027F8322024
:100FF000FFF7C0F8282000F021F83220FFF7BAF8F8
:10100000012000F01BF83220FFF7B4F8062000F0B2
:1010100015F83220FFF7AEF80C2000F00FF8322060
:10102000FFF7A8F8022000F009F83220FFF7A2F835
:10103000BDE81040802000F001B800001CB500F0B1
:10104000F00141F00C028DF8042041F0080100018C
:101050008DF8051040F00C018DF8061040F00800E6
:101060008DF8070064200090042301AA4E21024855
:10107000FFF74CFA1CBD0000100000201CB500F06A
:10108000F00141F00D028DF8042041F0090100014A
:101090008DF8051040F00D018DF8061040F00900A4
:1010A0008DF8070064200090042301AA4E21024815
:1010B000FFF72CFA1CBD00001000002010B50446FC
:1010C00002E0641CFFF7DAFF20780028F9D110BD98
:1010D00008B5FFF7F1FAFFF728FF2448816941F0CE
:1010E00020018161816901F020010091816941F055
:1010F00004018161816901F004010091816941F07D
:101100000801816180691A4900F0080000901948BF
:101110004FF4804201601849416000218160C0E9BC
:10112000031241618161C1610162FFF72BF9FFF791
:1011300057FF6420FFF71EF84E20FFF79FFFC820DF
:10114000FFF718F801210020FFF737FF3420FFF7E1
:1011500095FF4FF47A70FFF70DF800210120FFF79B
:101160002CFF06A0FFF7AAFFFEE7000000100240D8
:101170000054004010000020A08601004761732049
:1011800044657465637421212100000000000000A3
:101190000000000001020304060708090000000027
:1011A00001020304C4110008000000201000000028
:1011B0009C0F0008D4110008100000205804000003
:1011C000AC0F00080100000010000000000000004B
:0411D0000024F40003
:04000005080000ED02
:00000001FF
